:020000040800F2
:10000000005000204D130008D5120008DD12000832
:10001000E5120008ED120008F512000800000000CB
:10002000000000000000000000000000FD120008B9
:100030000913000800000000151300082113000830
:1000400095130008951300089513000895130008F0
:1000500095130008951300089513000895130008E0
:1000600095130008951300089513000895130008D0
:1000700095130008951300089513000895130008C0
:1000800095130008951300089513000895130008B0
:1000900095130008951300089513000895130008A0
:1000A000951300082D1300089513000895130008F8
:1000B0009513000895130008951300089513000880
:1000C0009513000895130008951300089513000870
:1000D0009513000895130008951300089513000860
:1000E0009513000895130008951300080000000000
:1000F0000000000000000000000000000000000000
:0C01000000000000000000005FF808F1A3
:1001100010B5054C237833B9044B13B10448AFF341
:1001200000800123237010BD140000200000000097
:10013000F045000808B5034B1BB103490348AFF372
:10014000008008BD0000000018000020F0450008F5
:100150004FF0FF0C1CEAD0521EBF1CEAD15392EAAA
:100160000C0F93EA0C0F6FD01A4480EA010C400286
:1001700018BF5FEA41211ED04FF0006343EA5010E0
:1001800043EA5111A0FB01310CF00040B1F5000F22
:100190003EBF490041EAD3715B0040EA010062F1D1
:1001A0007F02FD2A1DD8B3F1004F40EBC25008BFBB
:1001B00020F00100704790F0000F0CF0004C08BFD9
:1001C00049024CEA502040EA51207F3AC2BFD2F1A6
:1001D000FF0340EAC250704740F400004FF00003B4
:1001E000013A5DDC12F1190FDCBF00F000407047EE
:1001F000C2F10002410021FA02F1C2F1200200FA2C
:1002000002FC5FEA310040F1000053EA4C0308BFF2
:1002100020EADC70704792F0000F00F0004C02BF43
:10022000400010F4000F013AF9D040EA0C0093F0BE
:10023000000F01F0004C02BF490011F4000F013B18
:10024000F9D041EA0C018FE70CEAD15392EA0C0F86
:1002500018BF93EA0C0F0AD030F0004C18BF31F0F1
:10026000004CD8D180EA010000F00040704790F0C7
:10027000000F17BF90F0004F084691F0000F91F06B
:10028000004F14D092EA0C0F01D142020FD193EA31
:100290000C0F03D14B0218BF084608D180EA0100B9
:1002A00000F0004040F0FE4040F40000704740F095
:1002B000FE4040F44000704781F0004102E000BF82
:1002C00083F0004330B54FEA41044FEA430594EA16
:1002D000050F08BF90EA020F1FBF54EA000C55EA51
:1002E000020C7FEA645C7FEA655C00F0E2804FEA22
:1002F0005454D4EB5555B8BF6D420CDD2C4480EA04
:10030000020281EA030382EA000083EA010180EA33
:10031000020281EA0303362D88BF30BD11F0004F81
:100320004FEA01314FF4801C4CEA113102D04042B7
:1003300061EB410113F0004F4FEA03334CEA1333F2
:1003400002D0524263EB430394EA050F00F0A7800A
:10035000A4F10104D5F1200E0DDB02FA0EFC22FA05
:1003600005F2801841F1000103FA0EF2801843FAF9
:1003700005F359410EE0A5F120050EF1200E012AEA
:1003800003FA0EFC28BF4CF0020C43FA05F3C01828
:1003900051EBE37101F0004507D54FF0000EDCF1A1
:1003A000000C7EEB00006EEB0101B1F5801F1BD34A
:1003B000B1F5001F0CD349085FEA30004FEA3C0C4E
:1003C00004F101044FEA445212F5800F80F09A8044
:1003D000BCF1004F08BF5FEA500C50F1000041EB48
:1003E000045141EA050130BD5FEA4C0C404141EB4C
:1003F0000101013C28BFB1F5801FE9D291F0000F47
:1004000004BF01460020B1FA81F308BF2033A3F1F5
:100410000B03B3F120020CDA0C3208DD02F1140CEC
:10042000C2F10C0201FA0CF021FA02F10CE002F127
:100430001402D8BFC2F1200C01FA02F120FA0CFC20
:10044000DCBF41EA0C019040E41AA2BF01EB045169
:10045000294330BD6FEA04041F3C1CDA0C340EDC67
:1004600004F11404C4F1200220FA04F001FA02F3AA
:1004700040EA030021FA04F345EA030130BDC4F168
:100480000C04C4F1200220FA02F001FA04F340EA5D
:100490000300294630BD21FA04F0294630BD94F00E
:1004A000000F83F4801306BF81F480110134013DF5
:1004B0004EE77FEA645C18BF7FEA655C29D094EA66
:1004C000050F08BF90EA020F05D054EA000C04BFE4
:1004D0001946104630BD91EA030F1EBF00210020CF
:1004E00030BD5FEA545C05D14000494128BF41F06E
:1004F000004130BD14F580043CBF01F5801130BDD2
:1005000001F0004545F0FE4141F470014FF000005C
:1005100030BD7FEA645C1ABF194610467FEA655C0D
:100520001CBF0B46024650EA013406BF52EA0335AF
:1005300091EA030F41F4002130BD00BF90F0000F9D
:1005400004BF0021704730B54FF4806404F13204D9
:100550004FF000054FF0000150E700BF90F0000F92
:1005600004BF0021704730B54FF4806404F13204B9
:1005700010F0004548BF40424FF000013EE700BF89
:1005800042004FEAE2014FEA31014FEA02701FBF19
:1005900012F07F4393F07F4F81F06051704732F04B
:1005A0007F4208BF704793F07F4F04BF41F40021A2
:1005B000704730B54FF4607401F0004521F0004100
:1005C0001CE700BF50EA010208BF704730B54FF08A
:1005D00000050AE050EA010208BF704730B511F08B
:1005E000004502D5404261EB41014FF4806404F1C3
:1005F00032045FEA915C3FF4D8AE4FF003025FEA49
:10060000DC0C18BF03325FEADC0C18BF033202EBCC
:10061000DC02C2F1200300FA03FC20FA02F001FA26
:1006200003FE40EA0E0021FA02F11444BDE600BFC9
:1006300070B54FF0FF0C4CF4E06C1CEA11541DBF78
:100640001CEA135594EA0C0F95EA0C0F00F0DEF843
:100650002C4481EA030621EA4C5123EA4C5350EA28
:10066000013518BF52EA033541F4801143F4801379
:1006700038D0A0FB02CE4FF00005E1FB02E506F00A
:100680000042E0FB03E54FF00006E1FB03569CF05F
:10069000000F18BF4EF0010EA4F1FF04B6F5007F65
:1006A00064F5407404D25FEA4E0E6D4146EB0606D7
:1006B00042EAC62141EA55514FEAC52040EA5E5060
:1006C0004FEACE2EB4F1FD0C88BFBCF5E06F1ED80A
:1006D000BEF1004F08BF5FEA500E50F1000041EB41
:1006E000045170BD06F0004646EA010140EA0200EE
:1006F00081EA0301B4EB5C04C2BFD4EB0C0541EA10
:10070000045170BD41F480114FF0000E013C00F324
:10071000AB8014F1360FDEBF002001F0004170BD48
:10072000C4F10004203C35DA0C341BDC04F1140461
:10073000C4F1200500FA05F320FA04F001FA05F2ED
:1007400040EA020001F0004221F0004110EBD370BA
:1007500021FA04F642EB06015EEA430E08BF20EAE6
:10076000D37070BDC4F10C04C4F1200500FA04F389
:1007700020FA05F001FA04F240EA020001F000411B
:1007800010EBD37041F100015EEA430E08BF20EA8E
:10079000D37070BDC4F1200500FA05F24EEA020ED6
:1007A00020FA04F301FA05F243EA020321FA04F005
:1007B00001F0004121FA04F220EA020000EBD370BC
:1007C0005EEA430E08BF20EAD37070BD94F0000FBC
:1007D0000FD101F00046400041EB010111F4801FF0
:1007E00008BF013CF7D041EA060195F0000F18BFA1
:1007F000704703F00046520043EB030313F4801FDD
:1008000008BF013DF7D043EA0603704794EA0C0F96
:100810000CEA135518BF95EA0C0F0CD050EA4106AC
:1008200018BF52EA4306D1D181EA030101F0004129
:100830004FF0000070BD50EA410606BF1046194651
:1008400052EA430619D094EA0C0F02D150EA01365D
:1008500013D195EA0C0F05D152EA03361CBF10469E
:1008600019460AD181EA030101F0004141F0FE413D
:1008700041F470014FF0000070BD41F0FE4141F4C1
:10088000780170BD70B54FF0FF0C4CF4E06C1CEAC1
:1008900011541DBF1CEA135594EA0C0F95EA0C0F76
:1008A00000F0A7F8A4EB050481EA030E52EA033531
:1008B0004FEA013100F088804FEA03334FF0805552
:1008C00045EA131343EA12634FEA022245EA11157F
:1008D00045EA10654FEA00260EF000419D4208BF30
:1008E000964244F1FD0404F5407402D25B084FEADD
:1008F0003202B61A65EB03055B084FEA32024FF489
:1009000080104FF4002CB6EB020E75EB030E22BFE5
:10091000B61A754640EA0C005B084FEA3202B6EBA5
:10092000020E75EB030E22BFB61A754640EA5C0054
:100930005B084FEA3202B6EB020E75EB030E22BFE4
:10094000B61A754640EA9C005B084FEA3202B6EBE5
:10095000020E75EB030E22BFB61A754640EADC00A4
:1009600055EA060E18D04FEA051545EA16754FEA06
:1009700006164FEAC30343EA52734FEAC2025FEA24
:100980001C1CC0D111F4801F0BD141EA00014FF0B3
:1009900000004FF0004CB6E711F4801F04BF014384
:1009A0000020B4F1FD0C88BFBCF5E06F3FF6AFAEA0
:1009B000B5EB030C04BFB6EB020C5FEA500C50F130
:1009C000000041EB045170BD0EF0004E4EEA1131B3
:1009D00014EB5C04C2BFD4EB0C0541EA045170BDBA
:1009E00041F480114FF0000E013C90E645EA060EFE
:1009F0008DE60CEA135594EA0C0F08BF95EA0C0F2C
:100A00003FF43BAF94EA0C0F0AD150EA01347FF473
:100A100034AF95EA0C0F7FF425AF104619462CE74A
:100A200095EA0C0F06D152EA03353FF4FDAE1046AD
:100A3000194622E750EA410618BF52EA43067FF4FE
:100A4000C5AE50EA41047FF40DAF52EA43057FF48E
:100A5000EBAE12E74FF0FF3C06E000BF4FF0010C99
:100A600002E000BF4FF0010C4DF804CD4FEA410CFD
:100A70007FEA6C5C4FEA430C18BF7FEA6C5C1BD0CA
:100A800001B050EA410C0CBF52EA430C91EA030F4B
:100A900002BF90EA020F0020704710F1000F91EAA8
:100AA000030F58BF994208BF90422CBFD8176FEA76
:100AB000E37040F0010070474FEA410C7FEA6C5C44
:100AC00002D150EA013C07D14FEA430C7FEA6C5C4B
:100AD000D6D152EA033CD3D05DF8040B704700BF77
:100AE0008446104662468C461946634600E000BFC5
:100AF00001B5FFF7B7FF002848BF10F1000F01BD97
:100B00004DF808EDFFF7F4FF0CBF012000205DF861
:100B100008FB00BF4DF808EDFFF7EAFF34BF0120E6
:100B200000205DF808FB00BF4DF808EDFFF7E0FF7F
:100B300094BF012000205DF808FB00BF4DF808EDD0
:100B4000FFF7CEFF94BF012000205DF808FB00BF37
:100B50004DF808EDFFF7C4FF34BF012000205DF819
:100B600008FB00BF4FEA410212F5001215D211D561
:100B70006FF47873B3EB625212D94FEAC12343F09A
:100B8000004343EA505311F0004F23FA02F018BF1C
:100B9000404270474FF00000704750EA013005D1E5
:100BA00011F0004008BF6FF0004070474FF00000A8
:100BB000704700BF4FEA4102B2F1E04324BFB3F5F2
:100BC000001CDCF1FE5C0DD901F0004C4FEAC002C4
:100BD0004CEA5070B2F1004F40EB830008BF20F0A8
:100BE0000100704711F0804F21D113F13872BCBF62
:100BF00001F00040704741F480114FEA5252C2F1B7
:100C00001802C2F1200C10FA0CF320FA02F018BFFF
:100C100040F001004FEAC1234FEAD32303FA0CFC52
:100C200040EA0C0023FA02F34FEA4303CCE77FEAE1
:100C3000625307D150EA01331EBF4FF0FE4040F42B
:100C40004000704701F0004040F0FE4040F40000DA
:100C5000704700BF42000ED2B2F1FE4F0BD34FF0EF
:100C60009E03B3EB126209D44FEA002343F0004322
:100C700023FA02F070474FF00000704712F1610F45
:100C800001D1420202D14FF0FF3070474FF0000017
:100C9000704700BF0000000080B582B000AF00F0D8
:100CA0007BFB00F09DF800F09BF900F0DFF8444B6F
:100CB0001B684FF4E162DA62414B4FF4E162DA60A3
:100CC00000237B6046E07868FFF748FC3AA3D3E94D
:100CD0000023FFF7ADFC02460B46104619464FF0C5
:100CE0000002384BFFF7CEFD02460B461046194670
:100CF00002F014FB4FF00002334BFFF7E3FA024619
:100D00000B46104619464FF000024FF08043FFF7A4
:100D1000B9FD02460B4610461946FFF74BFF034646
:100D20003B602A493868FFF713FA03461A46284BF6
:100D30001B6819461046FFF70BFA03461846FFF7E3
:100D400089FF034699B2234A7B6822F813107B6817
:100D500001337B607B68B3F5C87FB4DB00224FF4BE
:100D600000611D4800F030FE0021154801F036FBFF
:100D70000021134802F022F90421114801F02EFB52
:100D800004210F4802F01AF908210D4801F026FB52
:100D900008210B4802F012F9094801F075FA4FF4E6
:100DA00000510E4800F028FE4FF4FA6000F056FBA8
:100DB00000BFF4E7AFF30080182D4454FB21194025
:100DC00030000020000079400000F03F0000E144C6
:100DD00004000020780000200008014000100140BD
:100DE00080B590B000AF07F1180328220021184603
:100DF00002F067FA3B1D00221A605A609A60DA60BE
:100E00001A610123BB614FF48033FB6100233B6215
:100E10000123BB6202237B634FF48033BB634FF437
:100E2000E013FB6307F11803184600F0FFFD0346CB
:100E3000002B01D000F0A2F90F237B600223BB60DE
:100E40000023FB604FF480633B6100237B613B1D0B
:100E50000221184601F06CF80346002B01D000F087
:100E60008DF900BF4037BD4680BD000080B596B00B
:100E700000AF07F1480300221A605A609A60DA60F6
:100E800007F1400300221A605A6007F12403002290
:100E90001A605A609A60DA601A615A619A613B1D61
:100EA00020220021184602F00CFA4B4B4B4A1A60E4
:100EB000494B00225A60484B20229A60464B48F624
:100EC000A042DA60444B00221A61434B00225A616F
:100ED000414B80229A61404801F086F90346002B7D
:100EE00001D000F04BF94FF48053BB6407F1480385
:100EF0001946394801F0C6FC0346002B01D000F02A
:100F00003DF9354801F012FA0346002B01D000F0FC
:100F100035F900233B6400237B6407F14003194645
:100F20002D4802F0E9F80346002B01D000F026F925
:100F300060237B6244F25063BB620023FB620023A8
:100F40003B6300237B630023BB630023FB6307F148
:100F5000240300221946204801F0D2FB0346002B4F
:100F600001D000F00BF907F12403042219461A48B6
:100F700001F0C6FB0346002B01D000F0FFF807F19B
:100F8000240308221946144801F0BAFB0346002B3B
:100F900001D000F0F3F800237B600023BB60002346
:100FA000FB6048233B6100237B614FF40053BB612E
:100FB00000233B623B1D1946074802F0FBF803463D
:100FC000002B01D000F0DAF8034800F035F900BF3B
:100FD0005837BD4680BD00BF30000020002C0140C6
:100FE00080B588B000AF07F1100300221A605A6084
:100FF0009A60DA602E4B9B692D4A43F0100393618F
:101000002B4B9B6903F01003FB60FB68284B9B692B
:10101000274A43F020039361254B9B6903F020038B
:10102000BB60BB68224B9B69214A43F00803936174
:101030001F4B9B6903F008037B607B681C4B9B691B
:101040001B4A43F004039361194B9B6903F00403AB
:101050003B603B6800224FF40051164800F0B4FC9E
:1010600000224FF40061144800F0AEFC4FF400532E
:101070003B6101237B610023BB610223FB6107F11C
:10108000100319460B4800F01BFB4FF400633B6153
:1010900001237B610023BB610323FB6107F1100384
:1010A0001946054800F00CFB00BF2037BD4680BD47
:1010B00000100240001001400008014080B483B0DD
:1010C00000AF78607B681B68264A934244D1264B68
:1010D0001B881A46254B33F81220254B1B685A6390
:1010E000244B1B881A46214B33F81220204B1B68D7
:1010F0009A63214B1B881A461C4B33F812201C4B59
:101100001B68DA63184B1B8801339AB2164B1A809E
:10111000154B1B88B3F5C87F02D3134B00221A80EE
:10112000144B1B8801339AB2124B1A80114B1B8847
:10113000B3F5C87F02D30F4B00221A800E4B1B88D9
:1011400001339AB20C4B1A800B4B1B88B3F5C87F46
:1011500002D3094B00221A8000BF0C37BD4680BC69
:10116000704700BF002C0140980300207800002049
:1011700030000020000000200200002080B400AFFA
:1011800072B600BF00BFFDE780B485B000AF154B5D
:101190009B69144A43F001039361124B9B6903F06E
:1011A0000103BB60BB680F4BDB690E4A43F0805301
:1011B000D3610C4BDB6903F080537B607B680A4B87
:1011C0005B68FB60FB6823F0E063FB60FB6843F057
:1011D0000073FB60044AFB68536000BF1437BD46D0
:1011E00080BC7047001002400000014080B584B010
:1011F00000AF78607B681B680D4A934213D10D4B9A
:101200009B690C4A43F4006393610A4B9B6903F4A6
:101210000063FB60FB6800220021192000F019FA2E
:10122000192000F032FA00BF1037BD4680BD00BF64
:10123000002C01400010024080B588B000AF7860FB
:1012400007F1100300221A605A609A60DA607B6826
:101250001B681C4A934231D11B4B9B691A4A43F0CD
:1012600008039361184B9B6903F00803FB60FB685C
:10127000154B9B69144A43F004039361124B9B691D
:1012800003F00403BB60BB684FF460433B6102237F
:101290007B610323FB6107F1100319460B4800F043
:1012A0000FFA4FF4E0633B6102237B610323FB6190
:1012B00007F110031946064800F002FA00BF203774
:1012C000BD4680BD002C014000100240000C0140D2
:1012D0000008014080B400AF00BFFDE780B400AF5C
:1012E00000BFFDE780B400AF00BFFDE780B400AFF2
:1012F00000BFFDE780B400AF00BFFDE780B400AFE2
:1013000000BFBD4680BC704780B400AF00BFBD4683
:1013100080BC704780B400AF00BFBD4680BC704742
:1013200080B500AF00F07EF800BF80BD80B500AF93
:10133000024801F0F5F800BF80BD00BF300000207A
:1013400080B400AF00BFBD4680BC7047FFF7F8FF18
:101350000B480C490C4A002302E0D458C450043313
:10136000C4188C42F9D3094A094C002301E01360E8
:101370000432A242FBD301F0ADFFFFF78DFC7047B2
:101380000000002014000020104800081400002075
:10139000A0030020FEE7000080B500AF084B1B68EB
:1013A000074A43F010031360032000F047F90F20B1
:1013B00000F008F8FFF7E8FE0023184680BD00BFE4
:1013C0000020024080B582B000AF7860124B1A68EE
:1013D000124B1B7819464FF47A73B3FBF1F3B2FB4F
:1013E000F3F3184600F05FF90346002B01D0012308
:1013F0000EE07B680F2B0AD8002279684FF0FF308F
:1014000000F027F9064A7B681360002300E00123FF
:1014100018460837BD4680BD080000201000002097
:101420000C00002080B400AF054B1B781A46054B1A
:101430001B681344034A136000BFBD4680BC70475D
:10144000100000209C03002080B400AF024B1B68FA
:101450001846BD4680BC70479C03002080B584B010
:1014600000AF7860FFF7F0FFB8607B68FB60FB6857
:10147000B3F1FF3F05D00A4B1B781A46FB681344B3
:10148000FB6000BFFFF7E0FF0246BB68D31AFA68B3
:101490009A42F7D800BF00BF1037BD4680BD00BFDD
:1014A0001000002080B485B000AF78607B6803F046
:1014B0000703FB600C4BDB68BB60BA684FF6FF03A9
:1014C0001340BB60FB681A02BB68134343F0BF6361
:1014D00043F40033BB60044ABB68D36000BF1437D9
:1014E000BD4680BC704700BF00ED00E080B400AF97
:1014F000044BDB681B0A03F007031846BD4680BC9B
:10150000704700BF00ED00E080B483B000AF034639
:10151000FB7197F90730002B0BDBFB7903F01F02FF
:10152000064997F907305B09012000FA02F241F8F9
:10153000232000BF0C37BD4680BC704700E100E0AF
:1015400080B483B000AF03463960FB7197F9073070
:10155000002B0ADB3B68DAB20C4997F9073012011D
:10156000D2B20B4483F800230AE03B68DAB20849A0
:10157000FB7903F00F03043B1201D2B20B441A763D
:1015800000BF0C37BD4680BC704700BF00E100E0E3
:1015900000ED00E080B489B000AFF860B9607A6017
:1015A000FB6803F00703FB61FB69C3F10703042B2E
:1015B00028BF0423BB61FB690433062B02D9FB69F6
:1015C000033B00E000237B614FF0FF32BB6902FA6E
:1015D00003F3DA43BB681A407B699A404FF0FF314E
:1015E0007B6901FA03F3D9437B680B401343184628
:1015F0002437BD4680BC704780B582B000AF7860AC
:101600007B68013BB3F1807F01D301230FE00A4ADD
:101610007B68013B53600F214FF0FF30FFF790FFD5
:10162000054B00229A60044B07221A6000231846DB
:101630000837BD4680BD00BF10E000E080B582B035
:1016400000AF78607868FFF72DFF00BF0837BD4610
:1016500080BD80B586B000AF0346B9607A60FB7389
:1016600000237B61FFF742FF78617A68B968786987
:10167000FFF790FF024697F90F3011461846FFF723
:101680005FFF00BF1837BD4680BD80B582B000AF98
:101690000346FB7197F907301846FFF735FF00BF87
:1016A0000837BD4680BD80B582B000AF78607868ED
:1016B000FFF7A2FF034618460837BD4680BD00006D
:1016C00080B48BB000AF7860396000237B62002368
:1016D0003B6269E101227B6A02FA03F3FB613B682A
:1016E0001B68FA691340BB61BA69FB699A4240F012
:1016F00058813B685B689A4A93425ED0984A93420D
:1017000075D8984A934258D0964A93426FD8964AD1
:10171000934252D0944A934269D8944A93424CD00F
:10172000924A934263D8924A934246D0904A934257
:101730005DD8122B2AD8122B59D801A252F823F0C7
:10174000BB17000895170008A7170008E91700083D
:10175000EF170008EF170008EF170008EF17000851
:10176000EF170008EF170008EF170008EF17000841
:10177000EF170008EF170008EF170008EF17000831
:10178000EF1700089D170008B1170008794A934227
:1017900013D02CE03B68DB683B6229E03B68DB68E8
:1017A00004333B6224E03B68DB6808333B621FE0A4
:1017B0003B68DB680C333B621AE03B689B68002B9C
:1017C00002D104233B6213E03B689B68012B05D1E7
:1017D00008233B627B68FA691A6109E008233B62CF
:1017E0007B68FA695A6103E000233B6200E000BFB6
:1017F000BB69FF2B01D87B6801E07B6804337B6108
:10180000BB69FF2B02D87B6A9B0002E07B6A083B26
:101810009B003B617B691A680F213B6901FA03F366
:10182000DB431A40396A3B6901FA03F31A437B69C7
:101830001A603B685B6803F08053002B00F0B180B6
:101840004D4B9B694C4A43F0010393614A4B9B69A2
:1018500003F00103BB60BB68484A7B6A9B08023304
:1018600052F82330FB607B6A03F003039B000F22D6
:1018700002FA03F3DB43FA681340FB607B68404ADB
:10188000934213D07B683F4A93420DD07B683E4A17
:10189000934207D07B683D4A934201D1032306E07F
:1018A000042304E0022302E0012300E000237A6A1B
:1018B00002F0030292009340FA681343FB602F4941
:1018C0007B6A9B080233FA6841F823203B685B6817
:1018D00003F48013002B06D02D4B9A682C49BB696A
:1018E00013438B6006E02A4B9A68BB69DB432849A7
:1018F00013408B603B685B6803F40013002B06D039
:10190000234BDA682249BB691343CB6006E0204BC6
:10191000DA68BB69DB431E491340CB603B685B68F8
:1019200003F40033002B06D0194B5A681849BB69E1
:1019300013434B6006E0164B5A68BB69DB431449FE
:1019400013404B603B685B6803F48033002B21D06D
:101950000F4B1A680E49BB6913430B6021E000BFAF
:101960000000321000003110000022100000211091
:101970000000121000001110001002400000014091
:1019800000080140000C014000100140001401401B
:10199000000401400B4B1A68BB69DB430949134043
:1019A0000B607B6A01337B623B681A687B6A22FAB0
:1019B00003F3002B7FF48EAE00BF00BF2C37BD4673
:1019C00080BC70470004014080B483B000AF7860F1
:1019D0000B467B8013467B707B78002B03D07A8884
:1019E0007B681A6103E07B881A047B681A6100BF78
:1019F0000C37BD4680BC704780B485B000AF7860BE
:101A00000B467B807B68DB68FB607A88FB68134051
:101A10001A04FB68D9437B880B401A437B681A6120
:101A200000BF1437BD4680BC7047000080B586B04B
:101A300000AF78607B68002B01D1012372E27B68E4
:101A40001B6803F00103002B00F08780924B5B685A
:101A500003F00C03042B0CD08F4B5B6803F00C03DA
:101A6000082B12D18C4B5B6803F48033B3F5803FB5
:101A70000BD1894B1B6803F40033002B6CD07B68BF
:101A80005B68002B68D101234CE27B685B68B3F58F
:101A9000803F06D1804B1B687F4A43F4803313603C
:101AA0002EE07B685B68002B0CD17B4B1B687A4A6D
:101AB00023F480331360784B1B68774A23F4802328
:101AC00013601DE07B685B68B3F5A02F0CD1724BEF
:101AD0001B68714A43F4802313606F4B1B686E4A86
:101AE00043F4803313600BE06B4B1B686A4A23F4AA
:101AF00080331360684B1B68674A23F480231360AC
:101B00007B685B68002B13D0FFF79EFC386108E010
:101B1000FFF79AFC02463B69D31A642B01D90323D1
:101B200000E25D4B1B6803F40033002BF0D014E09F
:101B3000FFF78AFC386108E0FFF786FC02463B6944
:101B4000D31A642B01D90323ECE1534B1B6803F434
:101B50000033002BF0D100E000BF7B681B6803F06E
:101B60000203002B63D04C4B5B6803F00C03002B8B
:101B70000BD0494B5B6803F00C03082B1CD1464B80
:101B80005B6803F48033002B16D1434B1B6803F0D2
:101B90000203002B05D07B681B69012B01D00123B8
:101BA000C0E13D4B1B6823F0F8027B685B69DB00FA
:101BB000394913430B603AE07B681B69002B20D046
:101BC000364B01221A60FFF73FFC386108E0FFF74F
:101BD0003BFC02463B69D31A022B01D90323A1E146
:101BE0002D4B1B6803F00203002BF0D02A4B1B681F
:101BF00023F0F8027B685B69DB00274913430B6025
:101C000015E0264B00221A60FFF71EFC386108E041
:101C1000FFF71AFC02463B69D31A022B01D90323B2
:101C200080E11D4B1B6803F00203002BF0D17B68A1
:101C30001B6803F00803002B3AD07B689B69002BDC
:101C400019D0174B01221A60FFF7FEFB386108E03C
:101C5000FFF7FAFB02463B69D31A022B01D9032393
:101C600060E10D4B5B6A03F00203002BF0D0012012
:101C700000F09CFA1CE00A4B00221A60FFF7E4FB1C
:101C800038610FE0FFF7E0FB02463B69D31A022BF5
:101C900008D9032346E100BF001002400000424281
:101CA00080044242924B5B6A03F00203002BE9D1AD
:101CB0007B681B6803F00403002B00F0A680002360
:101CC000FB758B4BDB6903F08053002B0DD1884BE8
:101CD000DB69874A43F08053D361854BDB6903F0AE
:101CE0008053BB60BB680123FB75824B1B6803F408
:101CF0008073002B18D17F4B1B687E4A43F480739E
:101D00001360FFF7A1FB386108E0FFF79DFB024677
:101D10003B69D31A642B01D9032303E1754B1B687C
:101D200003F48073002BF0D07B68DB68012B06D1B5
:101D30006F4B1B6A6E4A43F0010313622DE07B6810
:101D4000DB68002B0CD16A4B1B6A694A23F0010344
:101D50001362674B1B6A664A23F0040313621CE09C
:101D60007B68DB68052B0CD1614B1B6A604A43F032
:101D7000040313625E4B1B6A5D4A43F00103136266
:101D80000BE05B4B1B6A5A4A23F001031362584B6A
:101D90001B6A574A23F0040313627B68DB68002B3D
:101DA00015D0FFF751FB38610AE0FFF74DFB024603
:101DB0003B69D31A41F28832934201D90323B1E03F
:101DC0004B4B1B6A03F00203002BEED014E0FFF72D
:101DD0003BFB38610AE0FFF737FB02463B69D31A49
:101DE00041F28832934201D903239BE0404B1B6AA6
:101DF00003F00203002BEED1FB7D012B05D13C4B00
:101E0000DB693B4A23F08053D3617B68DB69002B9D
:101E100000F08780364B5B6803F00C03082B61D021
:101E20007B68DB69022B46D1334B00221A60FFF737
:101E30000BFB386108E0FFF707FB02463B69D31A4A
:101E4000022B01D903236DE0294B1B6803F00073BB
:101E5000002BF0D17B681B6AB3F5803F08D1244B7F
:101E60005B6823F400327B689B68214913434B6015
:101E70001F4B5B6823F474127B68196A7B685B6A8A
:101E80000B431B4913434B601B4B01221A60FFF7A6
:101E9000DBFA386108E0FFF7D7FA02463B69D31A4C
:101EA000022B01D903233DE0114B1B6803F00073A3
:101EB000002BF0D035E0104B00221A60FFF7C4FA77
:101EC000386108E0FFF7C0FA02463B69D31A022BDB
:101ED00001D9032326E0064B1B6803F00073002B97
:101EE000F0D11EE07B68DB69012B07D1012319E0EB
:101EF0000010024000700040600042420B4B5B68E3
:101F0000FB60FB6803F480327B681B6A9A4206D14F
:101F1000FB6803F470127B685B6A9A4201D001236C
:101F200000E0002318461837BD4680BD001002406F
:101F300080B584B000AF786039607B68002B01D138
:101F40000123D0E06A4B1B6803F007033A689A420A
:101F500010D9674B1B6823F0070265493B681343A0
:101F60000B60634B1B6803F007033A689A4201D089
:101F70000123B8E07B681B6803F00203002B20D02C
:101F80007B681B6803F00403002B05D0594B5B688A
:101F9000584A43F4E06353607B681B6803F008030E
:101FA000002B05D0534B5B68524A43F46053536097
:101FB000504B5B6823F0F0027B689B684D491343EC
:101FC0004B607B681B6803F00103002B40D07B68EB
:101FD0005B68012B07D1474B1B6803F40033002BD0
:101FE00015D101237FE07B685B68022B07D1414B51
:101FF0001B6803F00073002B09D1012373E03D4BF4
:102000001B6803F00203002B01D101236BE0394B65
:102010005B6823F003027B685B68364913434B60BF
:10202000FFF712FAF8600AE0FFF70EFA0246FB68C3
:10203000D31A41F28832934201D9032353E02D4B46
:102040005B6803F00C027B685B689B009A42EBD1F3
:10205000274B1B6803F007033A689A4210D2244BBF
:102060001B6823F0070222493B6813430B60204B97
:102070001B6803F007033A689A4201D0012332E05B
:102080007B681B6803F00403002B08D0194B5B68C6
:1020900023F4E0627B68DB68164913434B607B687E
:1020A0001B6803F00803002B09D0124B5B6823F474
:1020B00060527B681B69DB000E4913434B6000F0E4
:1020C00021F802460B4B5B681B0903F00F030A491A
:1020D000CB5C22FA03F3094A1360094B1B681846CC
:1020E000FFF770F9002318461037BD4680BD00BFCA
:1020F00000200240001002400846000808000020AE
:102100000C00002080B487B000AF0023FB600023E8
:10211000BB6000237B6100237B6000233B611E4B7F
:102120005B68FB60FB6803F00C03042B02D0082BF8
:1021300003D027E0194B3B6127E0FB689B0C03F0C1
:102140000F03174AD35C7B60FB6803F48033002BDA
:1021500010D0114B5B685B0C03F00103114AD35C98
:10216000BB607B680D4A03FB02F2BB68B2FBF3F372
:102170007B6104E07B680C4A02FB03F37B617B69B3
:102180003B6102E0054B3B6100BF3B6918461C37D1
:10219000BD4680BC704700BF0010024000127A00AC
:1021A000184600082846000800093D0080B485B0A4
:1021B00000AF78600A4B1B680A4AA2FB03235B0A44
:1021C0007A6802FB03F3FB6000BFFB685A1EFA60EB
:1021D000002BF9D100BF00BF1437BD4680BC70474B
:1021E00008000020D34D621080B582B000AF786047
:1021F0007B68002B01D1012341E07B6893F83D30DF
:10220000DBB2002B06D17B68002283F83C20786883
:10221000FEF7ECFF7B68022283F83D207B681A689A
:102220007B6804331946104600F018FC7B680122D5
:1022300083F846207B68012283F83E207B680122D8
:1022400083F83F207B68012283F840207B680122CD
:1022500083F841207B68012283F842207B680122B9
:1022600083F843207B68012283F844207B680122A5
:1022700083F845207B68012283F83D20002318461F
:102280000837BD4680BD000080B485B000AF7860DF
:102290007B6893F83D30DBB2012B01D001233AE09B
:1022A0007B68022283F83D207B681B68DA687B68C4
:1022B0001B6842F00102DA607B681B68184A93428F
:1022C0000ED07B681B68B3F1804F09D07B681B6818
:1022D000144A934204D07B681B68134A934211D17D
:1022E0007B681B689B6803F00703FB60FB68062B99
:1022F00010D07B681B681A687B681B6842F001027B
:102300001A6007E07B681B681A687B681B6842F0EC
:1023100001021A60002318461437BD4680BC70477E
:10232000002C0140000400400008004080B582B04D
:1023300000AF78607B68002B01D1012341E07B680E
:1023400093F83D30DBB2002B06D17B68002283F886
:102350003C20786800F039F87B68022283F83D2041
:102360007B681A687B6804331946104600F076FBD8
:102370007B68012283F846207B68012283F83E2097
:102380007B68012283F83F207B68012283F840208C
:102390007B68012283F841207B68012283F8422078
:1023A0007B68012283F843207B68012283F8442064
:1023B0007B68012283F845207B68012283F83D2059
:1023C000002318460837BD4680BD80B483B000AFF7
:1023D000786000BF0C37BD4680BC704780B584B0C4
:1023E00000AF786039603B68002B09D17B6893F8B7
:1023F0003E30DBB2012B14BF01230023DBB222E00D
:102400003B68042B09D17B6893F83F30DBB2012B8A
:1024100014BF01230023DBB215E03B68082B09D170
:102420007B6893F84030DBB2012B14BF01230023FB
:10243000DBB208E07B6893F84130DBB2012B14BFBC
:1024400001230023DBB2002B01D001235EE03B68B7
:10245000002B04D17B68022283F83E2013E03B6806
:10246000042B04D17B68022283F83F200BE03B68F9
:10247000082B04D17B68022283F8402003E07B68AC
:10248000022283F841207B681B68012239681846C4
:1024900000F070FD7B681B681E4A934207D17B6881
:1024A0001B685A6C7B681B6842F400425A647B6864
:1024B0001B68184A93420ED07B681B68B3F1804FAB
:1024C00009D07B681B68144A934204D07B681B6860
:1024D000124A934211D17B681B689B6803F0070383
:1024E000FB60FB68062B10D07B681B681A687B6852
:1024F0001B6842F001021A6007E07B681B681A68DB
:102500007B681B6842F001021A60002318461037EE
:10251000BD4680BD002C0140000400400008004082
:1025200080B584B000AF78607B681B68DB68FB60B7
:102530007B681B681B69BB60BB6803F00203002B50
:1025400020D0FB6803F00203002B1BD07B681B68C4
:102550006FF002021A617B6801221A777B681B68A0
:102560009B6903F00303002B03D0786800F05AFA4C
:1025700005E0786800F04DFA786800F05CFA7B6856
:1025800000221A77BB6803F00403002B20D0FB68FD
:1025900003F00403002B1BD07B681B686FF0040260
:1025A0001A617B6802221A777B681B689B6903F4B7
:1025B0004073002B03D0786800F034FA05E07868A7
:1025C00000F027FA786800F036FA7B6800221A7764
:1025D000BB6803F00803002B20D0FB6803F008035E
:1025E000002B1BD07B681B686FF008021A617B68A8
:1025F00004221A777B681B68DB6903F00303002B56
:1026000003D0786800F00EFA05E0786800F001FA6F
:10261000786800F010FA7B6800221A77BB6803F034
:102620001003002B20D0FB6803F01003002B1BD0FD
:102630007B681B686FF010021A617B6808221A77AA
:102640007B681B68DB6903F44073002B03D0786858
:1026500000F0E8F905E0786800F0DBF9786800F050
:10266000EAF97B6800221A77BB6803F00103002BAC
:102670000CD0FB6803F00103002B07D07B681B68BC
:102680006FF001021A617868FEF718FDBB6803F06D
:102690008003002B0CD0FB6803F08003002B07D0D5
:1026A0007B681B686FF080021A61786800F0DCFDBF
:1026B000BB6803F04003002B0CD0FB6803F0400321
:1026C000002B07D07B681B686FF040021A617868A6
:1026D00000F0BAF9BB6803F02003002B0CD0FB68B4
:1026E00003F02003002B07D07B681B686FF02002EB
:1026F0001A61786800F0AFFD00BF1037BD4680BD9D
:1027000080B586B000AFF860B9607A600023FB75D1
:10271000FB6893F83C30012B01D10223AEE0FB684B
:10272000012283F83C207B680C2B00F29F8001A2E1
:1027300052F823F0692700086D2800086D2800086A
:102740006D280008A92700086D2800086D280008DA
:102750006D280008EB2700086D2800086D28000888
:102760006D2800082B280008FB681B68B96818460C
:1027700000F0E2F9FB681B689A69FB681B6842F08D
:1027800008029A61FB681B689A69FB681B6822F063
:1027900004029A61FB681B689969BB681A69FB6847
:1027A0001B680A439A6164E0FB681B68B9681846B5
:1027B00000F028FAFB681B689A69FB681B6842F402
:1027C00000629A61FB681B689A69FB681B6822F4C7
:1027D00080629A61FB681B689969BB681B691A0271
:1027E000FB681B680A439A6143E0FB681B68B96891
:1027F000184600F071FAFB681B68DA69FB681B6811
:1028000042F00802DA61FB681B68DA69FB681B6842
:1028100022F00402DA61FB681B68D969BB681A6997
:10282000FB681B680A43DA6123E0FB681B68B96830
:10283000184600F0BBFAFB681B68DA69FB681B6886
:1028400042F40062DA61FB681B68DA69FB681B68A6
:1028500022F48062DA61FB681B68D969BB681B6976
:102860001A02FB681B680A43DA6102E00123FB7568
:1028700000BFFB68002283F83C20FB7D1846183718
:10288000BD4680BD80B584B000AF7860396000235C
:10289000FB737B6893F83C30012B01D10223B4E039
:1028A0007B68012283F83C207B68022283F83D206C
:1028B0007B681B689B68BB60BB6823F07703BB60C9
:1028C000BB6823F47F43BB607B681B68BA689A606F
:1028D0003B681B68B3F5005F3ED0B3F5005F00F2C4
:1028E0008780B3F5805F00F08680B3F5805F7FD886
:1028F000702B1AD0702B7BD8602B50D0602B77D8E0
:10290000502B3CD0502B73D8402B58D0402B6FD835
:10291000302B64D0302B6BD8202B60D0202B67D885
:10292000002B5CD0102B5AD062E07B6818683B68A3
:1029300099683B685A683B68DB6800F0FCFA7B6882
:102940001B689B68BB60BB6843F07703BB607B6818
:102950001B68BA689A604FE07B6818683B689968A2
:102960003B685A683B68DB6800F0E5FA7B681B68E7
:102970009A687B681B6842F480429A603CE07B68FE
:1029800018683B6859683B68DB681A4600F05CFAD7
:102990007B681B685021184600F0B3FA2CE07B6876
:1029A00018683B6859683B68DB681A4600F07AFA99
:1029B0007B681B686021184600F0A3FA1CE07B6866
:1029C00018683B6859683B68DB681A4600F03CFAB7
:1029D0007B681B684021184600F093FA0CE07B6886
:1029E0001A683B681B681946104600F08AFA03E033
:1029F0000123FB7300E000BF7B68012283F83D20C8
:102A00007B68002283F83C20FB7B18461037BD46CC
:102A100080BD80B483B000AF786000BF0C37BD4686
:102A200080BC704780B483B000AF786000BF0C37C3
:102A3000BD4680BC704780B483B000AF786000BFF3
:102A40000C37BD4680BC704780B483B000AF78605F
:102A500000BF0C37BD4680BC7047000080B485B015
:102A600000AF786039607B681B68FB607B682F4A29
:102A700093420BD07B68B3F1804F07D07B682C4A20
:102A8000934203D07B682B4A934208D1FB6823F022
:102A90007003FB603B685B68FA681343FB607B680C
:102AA000224A93420BD07B68B3F1804F07D07B68FA
:102AB0001F4A934203D07B681E4A934208D1FB68A9
:102AC00023F44073FB603B68DB68FA681343FB60E8
:102AD000FB6823F080023B685B691343FB607B6803
:102AE000FA681A603B689A687B68DA623B681A6821
:102AF0007B689A627B680D4A934203D13B681A69EE
:102B00007B681A637B6801225A617B681B6903F04A
:102B10000103002B05D07B681B6923F001027B6851
:102B20001A6100BF1437BD4680BC7047002C0140BD
:102B3000000400400008004080B487B000AF786017
:102B400039607B681B6A7B617B681B6A23F001022A
:102B50007B681A627B685B683B617B689B69FB6092
:102B6000FB6823F07003FB60FB6823F00303FB604A
:102B70003B681B68FA681343FB607B6923F0020320
:102B80007B613B689B687A6913437B617B681C4A65
:102B900093420CD17B6923F008037B613B68DB68BF
:102BA0007A6913437B617B6923F004037B617B6853
:102BB000134A934211D13B6923F480733B613B6913
:102BC00023F400733B613B685B693A6913433B61E3
:102BD0003B689B693A6913433B617B683A695A6079
:102BE0007B68FA689A613B685A687B685A637B68BD
:102BF0007A691A6200BF1C37BD4680BC704700BFAF
:102C0000002C014080B487B000AF786039607B68E9
:102C10001B6A7B617B681B6A23F010027B681A6267
:102C20007B685B683B617B689B69FB60FB6823F4A6
:102C3000E043FB60FB6823F44073FB603B681B6868
:102C40001B02FA681343FB607B6923F020037B615E
:102C50003B689B681B017A6913437B617B681D4A53
:102C600093420DD17B6923F080037B613B68DB6875
:102C70001B017A6913437B617B6923F040037B610D
:102C80007B68144A934213D13B6923F480633B6110
:102C90003B6923F400633B613B685B699B003A69D5
:102CA00013433B613B689B699B003A6913433B615B
:102CB0007B683A695A607B68FA689A613B685A682F
:102CC0007B689A637B687A691A6200BF1C37BD46CD
:102CD00080BC7047002C014080B487B000AF7860A2
:102CE00039607B681B6A7B617B681B6A23F4807296
:102CF0007B681A627B685B683B617B68DB69FB60B1
:102D0000FB6823F07003FB60FB6823F00303FB60A8
:102D10003B681B68FA681343FB607B6923F400730C
:102D20007B613B689B681B027A6913437B617B680C
:102D30001D4A93420DD17B6923F400637B613B689C
:102D4000DB681B027A6913437B617B6923F4806330
:102D50007B617B68144A934213D13B6923F480530F
:102D60003B613B6923F400533B613B685B691B019A
:102D70003A6913433B613B689B691B013A69134302
:102D80003B617B683A695A607B68FA68DA613B6844
:102D90005A687B68DA637B687A691A6200BF1C37FD
:102DA000BD4680BC704700BF002C014080B487B096
:102DB00000AF786039607B681B6A3B617B681B6A87
:102DC00023F480527B681A627B685B687B617B6856
:102DD000DB69FB60FB6823F4E043FB60FB6823F4E2
:102DE0004073FB603B681B681B02FA681343FB607F
:102DF0003B6923F400533B613B689B681B033A69C2
:102E000013433B617B680F4A934209D17B6923F4EA
:102E100080437B613B685B699B017A6913437B61FB
:102E20007B687A695A607B68FA68DA613B685A683D
:102E30007B681A647B683A691A6200BF1C37BD461A
:102E400080BC7047002C014080B487B000AFF860B0
:102E5000B9607A60FB681B6A7B61FB681B6A23F0C0
:102E60000102FB681A62FB689B693B613B6923F0C6
:102E7000F0033B617B681B013A6913433B617B694B
:102E800023F00A037B617A69BB6813437B61FB68AB
:102E90003A699A61FB687A691A6200BF1C37BD46BD
:102EA00080BC704780B487B000AFF860B9607A60CA
:102EB000FB681B6A7B61FB681B6A23F01002FB68DE
:102EC0001A62FB689B693B613B6923F470433B6179
:102ED0007B681B033A6913433B617B6923F0A003C2
:102EE0007B61BB681B017A6913437B61FB683A69AC
:102EF0009A61FB687A691A6200BF1C37BD4680BCC4
:102F0000704780B485B000AF786039607B689B689B
:102F1000FB60FB6823F07003FB603A68FB681343B7
:102F200043F00703FB607B68FA689A6000BF1437C0
:102F3000BD4680BC704780B487B000AFF860B96010
:102F40007A603B60FB689B687B617B6923F47F430D
:102F50007B613B681A027B681A43BB6813437A693A
:102F600013437B61FB687A699A6000BF1C37BD46DA
:102F700080BC704780B487B000AFF860B9607A60F9
:102F8000BB6803F01F03012202FA03F37B61FB68B5
:102F90001A6A7B69DB431A40FB681A62FB681A6A8B
:102FA000BB6803F01F03796801FA03F31A43FB6857
:102FB0001A6200BF1C37BD4680BC704780B584B024
:102FC00000AF786039603B68002B09D17B6893F8CB
:102FD0004230DBB2012B14BF01230023DBB222E01D
:102FE0003B68042B09D17B6893F84330DBB2012B9B
:102FF00014BF01230023DBB215E03B68082B09D185
:103000007B6893F84430DBB2012B14BF012300230B
:10301000DBB208E07B6893F84530DBB2012B14BFCC
:1030200001230023DBB2002B01D0012359E03B68D0
:10303000002B04D17B68022283F8422013E03B6816
:10304000042B04D17B68022283F843200BE03B6809
:10305000082B04D17B68022283F8442003E07B68BC
:10306000022283F845207B681B68042239681846D1
:1030700000F003F97B681B685A6C7B681B6842F49C
:1030800000425A647B681B68184A93420ED07B68E2
:103090001B68B3F1804F09D07B681B68144A9342C8
:1030A00004D07B681B68134A934211D17B681B686C
:1030B0009B6803F00703FB60FB68062B10D07B685E
:1030C0001B681A687B681B6842F001021A6007E0FF
:1030D0007B681B681A687B681B6842F001021A60F3
:1030E000002318461037BD4680BD00BF002C0140AC
:1030F000000400400008004080B485B000AF786054
:1031000039607B6893F83C30012B01D1022346E003
:103110007B68012283F83C207B68022283F83D20F3
:103120007B681B685B68FB607B681B689B68BB6097
:10313000FB6823F07003FB603B681B68FA6813436D
:10314000FB607B681B68FA685A607B681B68164ADC
:1031500093420ED07B681B68B3F1804F09D07B6827
:103160001B68124A934204D07B681B68104A934242
:103170000CD1BB6823F08003BB603B685B68BA6816
:103180001343BB607B681B68BA689A607B68012246
:1031900083F83D207B68002283F83C2000231846FA
:1031A0001437BD4680BC7047002C0140000400402D
:1031B0000008004080B485B000AF7860396000231B
:1031C000FB607B6893F83C30012B01D102233DE08A
:1031D0007B68012283F83C20FB6823F0FF023B68F8
:1031E000DB681343FB60FB6823F440723B689B6819
:1031F0001343FB60FB6823F480623B685B68134306
:10320000FB60FB6823F400623B681B681343FB60B0
:10321000FB6823F480523B681B691343FB60FB6827
:1032200023F400523B685B691343FB60FB6823F4A3
:1032300080423B68DB691343FB607B681B68FA686C
:103240005A647B68002283F83C2000231846143718
:10325000BD4680BC704780B483B000AF786000BFCB
:103260000C37BD4680BC704780B483B000AF786037
:1032700000BF0C37BD4680BC704780B487B000AF3C
:10328000F860B9607A60BB6803F00F03042202FAA9
:1032900003F37B61FB681A6A7B69DB431A40FB68B6
:1032A0001A62FB681A6ABB6803F00F03796801FAB7
:1032B00003F31A43FB681A6200BF1C37BD4680BC8B
:1032C000704703460244934200D1704703F8011B44
:1032D000F9E7000070B500260C4D0D4B5B1B9C10F0
:1032E000A64209D1002601F083F90A4D0A4B5B1B67
:1032F0009C10A64205D170BD55F8043B9847013695
:10330000EEE755F8043B98470136F2E70848000815
:1033100008480008084800080C48000870B5204A12
:1033200021F00043934286B01ED91E4A934205D92C
:1033300002460B46FCF7C4FF06B070BD02AA00F0BF
:1033400013FADDE904450346DDE9020103F0030356
:10335000012B1BD0022B0FD0EBB9012622462B46A6
:10336000009600F049F9E7E70024002200230094CA
:1033700000F042F906B070BD012622462B460096A9
:1033800000F03AF901F1004106B070BD22462B462B
:1033900000F00AF8D0E722462B4600F005F8F1E7E6
:1033A000FB21E93FFFFFEF7F2DE9F04F21F00048BF
:1033B000B8F1795F06460F4692469B4685B06DD2BE
:1033C000FDF7D0FB002800F0ED8032463B4630464A
:1033D0003946FDF72DF976A3D3E9002304460D46BF
:1033E000FDF726F974A3D3E90023FCF76BFF22460F
:1033F0002B46FDF71DF972A3D3E90023FCF760FF0C
:1034000022462B46FDF714F96FA3D3E90023FCF7FE
:1034100059FF22462B46FDF70BF96DA3D3E9002394
:10342000FCF74EFF22462B46FDF702F96AA3D3E9CB
:103430000023FCF747FF22462B46FDF7F9F8CDE9BC
:103440000001002220462946654BFDF7F1F8DDE931
:1034500000238046894620462946FDF7E9F8444680
:103460004D468046894652465B4630463946FDF712
:10347000DFF802460B4640464946FCF721FF02466C
:103480000B4620462946FCF71BFF02460B46002050
:103490005449FCF715FF05B0BDE8F08F02460B4616
:1034A000FDF7C6F842A3D3E9002304460D46FDF715
:1034B000BFF841A3D3E90023FCF704FF22462B46C3
:1034C000FDF7B6F83EA3D3E90023FCF7F9FE224648
:1034D0002B46FDF7ADF83CA3D3E90023FCF7F2FE41
:1034E00022462B46FDF7A4F839A3D3E90023FCF7C5
:1034F000E7FE22462B46FDF79BF837A3D3E90023CE
:10350000FCF7E0FE2B462246FDF792F8364BCDE95C
:103510000001984595D9354B002298453AD8A8F531
:10352000001300202F4990469946FCF7C9FECDE9CB
:103530000201002220462946294BFDF779F8424630
:103540004B46FCF7BDFEDDE9002380468946204658
:103550002946FDF76DF844464D4680468946524659
:103560005B4630463946FDF763F802460B46404657
:103570004946FCF7A5FE02460B4620462946FCF7C5
:103580009FFE02460B46DDE90201FCF799FE05B0FD
:10359000BDE8F08F164B4FF00008CDE90223DFF8AD
:1035A0005490C6E700200F4905B0BDE8F08F00BF7A
:1035B000D43888BEE9FAA8BDC4B1B4BD9EEE213EA0
:1035C000AD529C804F7E923E9015CB19A001FA3EE1
:1035D0007751C1166CC1563F4C5555555555A53FB1
:1035E0000000E03F0000F03F3233D33F0000E93FEE
:1035F0000000E73F0000D23F2DE9F04F83B0CDE956
:10360000002321F00043B3F1795F04460D4604D254
:10361000FDF7A8FA002800F0858022462B462046B8
:103620002946FDF705F806460F4632463B4620463A
:103630002946FCF7FDFF3EA3D3E9002382468B46D3
:1036400030463946FCF7F4FF3BA3D3E90023FCF7EF
:1036500037FE32463B46FCF7EBFF39A3D3E90023A4
:10366000FCF730FE32463B46FCF7E2FF36A3D3E9D7
:103670000023FCF725FE32463B46FCF7D9FF34A376
:10368000D3E90023FCF71EFE0C9B804689469BB3C2
:10369000DDE900010022324BFCF7CAFF42464B46EF
:1036A0008046894650465946FCF7C2FF02460B4603
:1036B00040464946FCF704FE32463B46FCF7B8FF5D
:1036C000DDE90023FCF7FCFD23A3D3E90023064634
:1036D0000F4650465946FCF7ABFF02460B463046B4
:1036E0003946FCF7EFFD02460B4620462946FCF71B
:1036F000E7FD03B0BDE8F08F02460B463046394681
:10370000FCF796FF14A3D3E90023FCF7D9FD52463A
:103710005B46FCF78DFF22462B46FCF7D3FD03B03A
:10372000BDE8F08F2046294603B0BDE8F08F00BF0A
:103730007CD5CF5A3AD9E53DEB9C2B8AE6E55A3E3B
:103740007DFEB157E31DC73ED561C119A0012A3FD7
:10375000A6F810111111813F495555555555C53FD2
:103760000000E03F000000002DE9F04F964B21F0F3
:1037700000459D4282468B4614468FB040F28B80B6
:10378000924B0F469D4228D885A3D3E900230029F8
:1037900040F3A081FCF794FD8D4B06469D420F46F9
:1037A00000F08D8080A3D3E90023FCF789FD024659
:1037B0000B463046394616461F46FCF781FD7AA374
:1037C000D3E90023FCF77CFDC4E900670126C4E9C6
:1037D000020130460FB0BDE8F08F7E4B9D4240F2B3
:1037E00088807D4B9D4261D82E15A6F21646A5EB2A
:1037F000065949465046FDF7B5F9FCF7AFFE0246BB
:103800000B4650464946CDE90823FCF759FD0022F6
:10381000724BFCF70DFF89468046FDF7A3F9FCF7D4
:103820009DFE02460B4640464946CDE90A23FCF779
:1038300047FD0022694BFCF7FBFE03254FF0000813
:103840004FF00009CDE90C010DF1380A42467AE942
:1038500002014B46AB46013DFDF752F90028F5D178
:1038600002255F49324601915B46214608A8009532
:1038700000F084F9002F0646ABDA60682268E16840
:1038800000F10043C4E90023A26801F10043C4E948
:10389000022376429DE700220023C4E900ABC4E97D
:1038A0000223002630460FB0BDE8F08F02460B46DB
:1038B000FCF706FDC4E90201C4E90001F1E73CA3FD
:1038C000D3E90023FCF7FCFC3BA3D3E900238046AB
:1038D0008946FCF7F5FC06460F4632463B46404615
:1038E0004946FCF7EDFC34A3D3E90023FCF7E8FCE0
:1038F0006AE700F03FF932A3D3E900238046894606
:10390000FCF796FE0022374BFCF7DCFCFDF72AF9AA
:103910000646FCF723FE02460B46CDE9022320A310
:10392000D3E90023FCF784FE02460B464046494695
:10393000FCF7C6FC1CA3D3E9002382468B46DDE9D5
:103940000201FCF775FE02460B4650465946CDE98A
:103950000423FCF7B5FC1F2E8046894646DC224B2B
:10396000721E53F82230AB4240D042464B4650467E
:103970005946C4E90089FCF7A3FCDDE90423FCF700
:103980009FFC002FC4E90201BFF623AF09F10042FA
:10399000C4E9008201F10042C4E90202764218E75C
:1039A00000004054FB21F93F3163621A61B4D03DFD
:1039B0000000601A61B4D03D7370032E8A19A33BD6
:1039C00083C8C96D305FE43FFB21E93F7BD90240EA
:1039D000FB21F93FFB213941FFFFEF7F00007041E0
:1039E000AC4600080000E03F2C460008C9F30A532B
:1039F000C3EB15532A15102B0792B6DD52A3D3E95A
:103A00000023DDE90201FCF713FE804689464246A9
:103A10004B4650465946FCF753FC02460B4650466F
:103A2000594692469B46FCF74BFC42464B46FCF7F8
:103A300047FC47A3D3E9002380468946DDE902011C
:103A4000FCF7F6FD42464B46FCF73AFC02460B46B5
:103A500050465946CDE90423FCF732FC079AC1F3DE
:103A60000A53D31A312B804689467FF77EAF3AA39B
:103A7000D3E90023DDE90201FCF7DAFD804689463F
:103A800042464B4650465946FCF71AFC02460B4646
:103A90005046594692469B46FCF712FC42464B461E
:103AA000FCF70EFC2EA3D3E9002380468946DDE90E
:103AB0000201FCF7BDFD42464B46FCF701FC024605
:103AC0000B4650465946CDE90423FCF7F9FB8046E6
:103AD00089464AE7FCF7F6FB254B06469D420F4612
:103AE00018D021A3D3E90023FCF7ECFB02460B46D8
:103AF0003046394616461F46FCF7E2FB1AA3D3E9C7
:103B00000023FCF7DFFBC4E90067C4E902014FF0C2
:103B1000FF365EE60CA3D3E90023FCF7D3FB0CA32E
:103B2000D3E9002380468946FCF7CCFB06460F46C6
:103B300032463B4640464946FCF7C2FB04A3D3E964
:103B40000023FCF7BFFBDEE70000601A61B4D03D44
:103B50007370032E8A19A33B0000002E8A19A33B21
:103B6000C14920259A837B393163621A61B4D03D03
:103B7000FB21F93F21F00043194670472DE9F04F32
:103B8000ADF5197DBF4CA29D9C4612F1140F03F1B7
:103B9000FF33824654F825600B910293C0F2BC8239
:103BA000B949D31E81FB0301DB17C3EBA1030793C4
:103BB0000133A3EB8303DB00D3180A93079A0CF1BC
:103BC000FF3316EB0309A2EB030721D409F1010926
:103BD000B9440DF18008009600244E460025C146E8
:103BE000DDF88CB2E04608E05BF82700FCF7B6FC95
:103BF0000137B742E9E8020108D0002FF4DA204685
:103C000029460137B742E9E80201F6D1C446009ED1
:103C1000002EC0F2AE83029CAAF10801039101EBD1
:103C2000CC09A346002000210DF1800A0AEBCC0A42
:103C300070AB4FEACC0706EB0C02002C80F29581AA
:103C40000BF1010B9345E3E802010AF1080AF4D1F4
:103C5000039B009603EB070A0CAB03EB8603043BC4
:103C600008930CAB03EB8603D3461F4604960A9ECB
:103C7000CDF824C00099CA000DEBC10300290192C0
:103C8000D3E970452DDDCDE905670DF5E07A0DF13D
:103C900030090AEB020800227C4B20462946FCF73B
:103CA000C7FCFCF75FFFFCF759FC0022784B064687
:103CB0000F46FCF7BDFC02460B4620462946FCF7A2
:103CC000FFFAFCF74FFF78E9022349F8040B394665
:103CD0003046FCF7F7FAD04504460D46DBD1DDE966
:103CE000056720462946324600F07EFB00224FF051
:103CF0007F5304460D46FCF79BFC00F0F5FB0022C9
:103D0000644BFCF795FC02460B4620462946FCF71F
:103D1000D7FA0D460446FCF725FF8246FCF71EFC49
:103D200002460B4620462946FCF7CAFA002E80467A
:103D3000894640F38A80009BC6F11802591E0CABDD
:103D400053F82130C6F1170443FA02F000FA02F2E8
:103D50009B1A43FA04F40CAA002C824442F8213046
:103D600000F3F1800022002340464946FCF7C8FEDC
:103D7000002800F01382009B049A93420CDD00227D
:103D80000CA901EB830353F8041DBB4242EA010274
:103D9000F9D1002A40F01181049B0CAA013B52F892
:103DA0002330009A02F10108002B40F0DC8001234F
:103DB000089A52F8041D01330029FAD0009A1344DE
:103DC000009A09990DF180090A44079909EBC20983
:103DD00001EB080A0AF1804AA3990AF1FF3A01EBC4
:103DE0008A0A019970AA11440091059601930697D9
:103DF0005AF8040FFCF7B2FB029BE9E80201002B22
:103E000020DB4F4600240025039E77E90223F6E9D4
:103E10000201FCF70DFC02460B4620462946FCF742
:103E200051FA5E4504460D46EFD1009B08F10108AA
:103E3000E3E902450093019B9845D9DDDDE905677B
:103E4000009317E700240025EFE762D00022124B11
:103E5000FCF774FE0446002884D0009B0AF1010A96
:103E6000002BC8BF022440F37A8200210CAB53F828
:103E7000045B002D48D0C5F180756FF07F4043F89A
:103E8000045C0FE0F8470008ABAAAA2A0000703EC5
:103E900000007041000020400000E03F1A68821AD4
:103EA00043F8042B009A01318A42F7DC0125002EE9
:103EB0000EDD012E00F02581022E09D1009B0CA9F8
:103EC0005A1E0CAB53F82230C3F3150341F82230CD
:103ED000022C7FF447AF42464B460020AC49FCF72A
:103EE000EFF980468946002D3FF43CAF3246002072
:103EF000A74900F079FA02460B4640464946FCF7CE
:103F0000DFF9804689462DE7009A01318A42AEDC0E
:103F1000CDE7009B0CAA013B52F82340E415002C8E
:103F20007FF720AF009B0AF1010A002B9DDC022CD9
:103F30007FF418AF42464B4600209549FCF7C0F984
:103F4000804689460EE7009A0AF1010A002A8CDCB5
:103F5000012E00F01E82022EE9D1C3F315030CAA34
:103F600042F82130E3E743462AE7D846D3469A464B
:103F7000CDE904C7019600925F4600240025039E08
:103F800077E90223F6E90201FCF752FB02460B46F1
:103F900020462946FCF796F94E4504460D46EFD1DA
:103FA000009B08F101089845EAE802450BF1080B6F
:103FB000E2D1DDE904C7019E4AE60A9B009FA3F116
:103FC000180203940CAB7C1E53F82430049ECDF8E9
:103FD00014A00A9263B907F18043013B0CA901EBDD
:103FE000830353F8041D013C183A0029F9D00A92C2
:103FF00000200A9A664900F0F7F9002C80468946AD
:10400000C0F2BD814FF0000A671C0CAB03EB8705C3
:10401000F90070ABDFF87CB103EBC707009155F8EE
:10402000040DFCF79BFA42464B46FCF701FB5B464E
:1040300067E90201524640464946FCF7F9FA0CABE3
:104040009D4280468946EAD1009948A8A1F1100313
:1040500070AA002E01944FF0000B044602901A44FF
:10406000049128DB924600254FF000084FF000092C
:10407000494F009210E0FAE90223F7E90201FCF748
:10408000D7FA02460B4640464946FCF71BF9013574
:10409000AE428046894601DB5D45ECDD009A019B1E
:1040A000E4E802899B45A2F108020BF1010107D067
:1040B000002E8B46D6DA4FF000084FF00009EEE7ED
:1040C000A29B019C022B049900F39D80002B28DC0D
:1040D00010D1029D00206C18002174E90223FCF726
:1040E000F1F8A542F9D1039B002B40F027810B9BEF
:1040F000C3E90001059B03F007000DF5197DBDE83C
:10410000F08F009B0CA95A1E0CAB53F82230C3F35E
:10411000160341F82230DBE600216FF01703079108
:104120004AE5029B0026DDE9488900279A465D188A
:10413000304675E902233946FCF7C4F8AA4506461D
:104140000F46F5D1039B40464946002B40F0FA80CC
:104150003B463246FCF7B4F80B9BC3E9006764B1F9
:104160000126F5E902230136FCF7ACF8B442F8DA8F
:10417000039B13B101F1004319460B9BC3E90201F4
:10418000059B03F007000DF5197DBDE8F08F00BF1A
:104190000000F03F0000703EB04700080A9B404618
:1041A0005A424946009F049ECDF814A0039400F0A3
:1041B0001BF90022884B80468946FCF7BFFC00288B
:1041C00000F09D800022854B40464946FCF730FABE
:1041D000FCF7C8FC0546FCF7C1F900227E4BFCF752
:1041E00027FA0B46024649464046FCF769F8FCF7B9
:1041F000B9FC7C1C0CAB43F8270043F824500A9B05
:1042000018330A93F4E6A29B032B7FF473AF002CC0
:1042100000F0CE80029B4FEAC40903EBC405A84618
:10422000D5E90067CDE90054049558E902453046C8
:10423000394622462B46FCF745F8B246BB460646B1
:104240000F4632463B4620462946FCF739F85B4686
:104250005246FCF737F8C8E9000168E90267029B9B
:104260004345E2D1DDE900A4012C049D00F0A080CB
:10427000D5E9004503F1080BCDF800905AE9026733
:104280002046294632463B46FCF71CF8A046A94684
:1042900004460D4622462B4630463946FCF710F8B8
:1042A00042464B46FCF70EF8CAE900016AE90245AE
:1042B000D345E3D100200021DDF80090029B09F1F5
:1042C00008041C4403F1100574E90223FBF7FAFF0C
:1042D000A542F9D1DDE94856029BD3E90278039B58
:1042E000B3B90B9BC3E90401C3E90056C3E90278E3
:1042F000059B03F007000DF5197DBDE8F08F4046E2
:104300004946FCF72FFC0CAB3C4643F827006FE610
:104310000B9B2C4606F100455D601D461C6008F1B4
:104320000043C5E90273059B01F10042C5E904029F
:1043300003F007000DF5197DBDE8F08F01F1004392
:104340001946D4E60B9A07F10043536016603B46CA
:104350003246FBF7B5FF002C7FF402AF0AE7424676
:104360004B4600201E49FBF7ABFF022480468946DE
:10437000F8E4AAF1080303934FEACC0768E4A29B90
:10438000022B0FDC002B16DC7FF4B4AE00200021E2
:10439000A9E6C3F316030CAA022C42F821307FF4DD
:1043A000E1ACC7E5A29B032B7FF4A4AE48AB02931C
:1043B000002000218EE7039BDDE9480133B1002294
:1043C0004FF000430B9CC4E90023D3E600220023F6
:1043D0000B9CC4E90023D0E6000070410000703E51
:1043E0000000F03F000000002DE9F0411646C1F347
:1043F0000A52074688460B466ABB21F00043034336
:1044000027D0334B0022FCF713F9324B07469E426C
:1044100088463CDB0B46C1F30A52363A4CF2503127
:104420008E4221DC164440F2FE7296421CDC002EC5
:1044300026DC16F1350F31DB23F0FF4121F4E001DA
:10444000363641EA0655002238462946224BFCF70B
:10445000EFF8BDE8F08140F2FF7C6245DED1024614
:10446000FBF730FFBDE8F081454615A3D3E90023F3
:1044700063F31E0529461948FCF7DAF8BDE8F08118
:104480006FF31E53384643EA0651BDE8F0810EA390
:10449000D3E90023FCF7CCF8BDE8F08108F0004434
:1044A00044F0D27141F4B73107A3D3E900230C489B
:1044B00041F01F01FCF7BCF8CBE700BFAFF3008071
:1044C0009C7500883CE4377E59F3F8C21F6EA50145
:1044D00000005043B03CFFFF0000903C9C750088FA
:1044E00059F3F8C200000000C1F30A5C2DE9F04165
:1044F000ACF2FF35132D02460B460C46064622DC75
:10450000002D42DBDFF8E0800F4648FA05F801EAAB
:10451000080C5CEA000C1BD031A3D3E90023FBF7A5
:10452000D1FE00220023FCF713FB40B1002C03DA7C
:104530004FF480132B411F44002627EA080421462C
:104540003046BDE8F081332D06DDB5F5806F2CD007
:1045500010461946BDE8F0814FF0FF37ACF2134C1E
:1045600027FA0CF73842F3D01DA3D3E90023FBF759
:10457000A9FE00220023FCF7EBFA0028DFD0002C74
:1045800033461CDB23EA0706D9E715A3D3E900234A
:10459000FBF798FE00220023FCF7DAFA0028CED0C1
:1045A000002C05DB00263446C9E7FBF78BFED1E77C
:1045B00024F0004426430DD14FF00044BFE7142DF2
:1045C00006D00122C5F13405AA4013449E42D9D930
:1045D0000134D7E70026054CB1E700BFAFF30080F8
:1045E0009C7500883CE4377EFFFF0F000000F0BFA1
:1045F000F8B500BFF8BC08BC9E467047F8B500BFD0
:08460000F8BC08BC9E4670479F
:10460800000000000000000001020304060708097A
:1046180002030405060708090A0B0C0D0E0F1010FB
:1046280001020000FB21F93FFB2109407CD912401F
:10463800FB2119407A6A1F407CD92240BBFD2540E6
:10464800FB2129403A462C407A6A2F405C4731408A
:104658007CD932409C6B3440BBFD3540DB8F374002
:10466800FB2139401BB43A403A463C405AD83D40B9
:104678007A6A3F404C7E40405C4741406C10424063
:104688007CD942408CA243409C6B4440AC344540AA
:10469800BBFD4540CBC64640DB8F4740EB58484002
:1046A800FB21494083F9A200444E6E00FC29150005
:1046B800D1572700DD34F50062DBC0003C99950036
:1046C800419043006351FE00BBDEAB00B761C500FB
:1046D8003A6E2400D24D42004906E00009EA2E0055
:1046E8001C92D100EB1DFE0029B11C00E83EA7007A
:1046F800F535820044BB2E009CE98400B426700086
:10470800417E5F00D6913900538339009CF439000B
:104718008B5F840028F9BD00F81F3B00DEFF97007F
:104728000F980500112FEF000A5A8B006D1F6D00BE
:10473800CF7E360009CB2700464FB7009E663F0064
:104748002DEA5F00BA277500E5EBC7003D7BF10055
:10475800F739070092528A00FB6BEA001FB15F002D
:10476800085D8D00300356007BFC4600F0AB6B0003
:1047780020BCCF0036F49A00E3A91D005E619100C9
:10478800081BE60085996500A0145F008D4068004D
:1047980080D8FF0027734D0006063100CA56150061
:1047A800C9A873007BE260006B8CC00000000000A9
:1047B80000000040FB21F93F000000002D44743E3A
:1047C800000000809846F83C0000006051CC783B1F
:1047D80000000080831BF0390000004020257A3853
:1047E800000000802282E336000000001DF36935D6
:1047F80002000000030000000400000006000000A2
:04480800350100086E
:04480C00110100088E
:1048100085000A016666663F00127A0010000000FB
:044820000100000093
:040000050800134D8F
:00000001FF
